{
  "_format": "hh-sol-artifact-1",
  "contractName": "ProductVerification",
  "sourceName": "contracts/ProductVerification.sol",
  "abi": [
    {
      "inputs": [],
      "stateMutability": "nonpayable",
      "type": "constructor"
    },
    {
      "inputs": [
        {
          "internalType": "address",
          "name": "owner",
          "type": "address"
        }
      ],
      "name": "OwnableInvalidOwner",
      "type": "error"
    },
    {
      "inputs": [
        {
          "internalType": "address",
          "name": "account",
          "type": "address"
        }
      ],
      "name": "OwnableUnauthorizedAccount",
      "type": "error"
    },
    {
      "anonymous": false,
      "inputs": [
        {
          "indexed": true,
          "internalType": "address",
          "name": "previousOwner",
          "type": "address"
        },
        {
          "indexed": true,
          "internalType": "address",
          "name": "newOwner",
          "type": "address"
        }
      ],
      "name": "OwnershipTransferred",
      "type": "event"
    },
    {
      "anonymous": false,
      "inputs": [
        {
          "indexed": false,
          "internalType": "string",
          "name": "productCode",
          "type": "string"
        },
        {
          "indexed": false,
          "internalType": "address",
          "name": "verifier",
          "type": "address"
        },
        {
          "indexed": false,
          "internalType": "uint256",
          "name": "timestamp",
          "type": "uint256"
        }
      ],
      "name": "ProductVerified",
      "type": "event"
    },
    {
      "inputs": [
        {
          "internalType": "string",
          "name": "productCode",
          "type": "string"
        }
      ],
      "name": "getVerificationTimestamp",
      "outputs": [
        {
          "internalType": "uint256",
          "name": "",
          "type": "uint256"
        }
      ],
      "stateMutability": "view",
      "type": "function"
    },
    {
      "inputs": [
        {
          "internalType": "string",
          "name": "productCode",
          "type": "string"
        }
      ],
      "name": "isProductVerified",
      "outputs": [
        {
          "internalType": "bool",
          "name": "",
          "type": "bool"
        }
      ],
      "stateMutability": "view",
      "type": "function"
    },
    {
      "inputs": [],
      "name": "owner",
      "outputs": [
        {
          "internalType": "address",
          "name": "",
          "type": "address"
        }
      ],
      "stateMutability": "view",
      "type": "function"
    },
    {
      "inputs": [],
      "name": "renounceOwnership",
      "outputs": [],
      "stateMutability": "nonpayable",
      "type": "function"
    },
    {
      "inputs": [
        {
          "internalType": "address",
          "name": "newOwner",
          "type": "address"
        }
      ],
      "name": "transferOwnership",
      "outputs": [],
      "stateMutability": "nonpayable",
      "type": "function"
    },
    {
      "inputs": [
        {
          "internalType": "string",
          "name": "productCode",
          "type": "string"
        }
      ],
      "name": "verifyProduct",
      "outputs": [],
      "stateMutability": "nonpayable",
      "type": "function"
    }
  ],
  "bytecode": "0x608060405234801561001057600080fd5b5033600073ffffffffffffffffffffffffffffffffffffffff168173ffffffffffffffffffffffffffffffffffffffff16036100845760006040517f1e4fbdf700000000000000000000000000000000000000000000000000000000815260040161007b919061019e565b60405180910390fd5b6100938161009960201b60201c565b506101b9565b60008060009054906101000a900473ffffffffffffffffffffffffffffffffffffffff169050816000806101000a81548173ffffffffffffffffffffffffffffffffffffffff021916908373ffffffffffffffffffffffffffffffffffffffff1602179055508173ffffffffffffffffffffffffffffffffffffffff168173ffffffffffffffffffffffffffffffffffffffff167f8be0079c531659141344cd1fd0a4f28419497f9722a3daafe3b4186f6b6457e060405160405180910390a35050565b600073ffffffffffffffffffffffffffffffffffffffff82169050919050565b60006101888261015d565b9050919050565b6101988161017d565b82525050565b60006020820190506101b3600083018461018f565b92915050565b6108ee806101c86000396000f3fe608060405234801561001057600080fd5b50600436106100625760003560e01c80636f21fbcd14610067578063715018a6146100975780638da5cb5b146100a157806392efc453146100bf578063e3bdc894146100db578063f2fde38b1461010b575b600080fd5b610081600480360381019061007c91906105d4565b610127565b60405161008e9190610636565b60405180910390f35b61009f61014f565b005b6100a9610163565b6040516100b69190610692565b60405180910390f35b6100d960048036038101906100d491906105d4565b61018c565b005b6100f560048036038101906100f091906105d4565b61026c565b60405161010291906106c8565b60405180910390f35b6101256004803603810190610120919061070f565b6102a1565b005b600060028260405161013991906107ad565b9081526020016040518091039020549050919050565b610157610327565b61016160006103ae565b565b60008060009054906101000a900473ffffffffffffffffffffffffffffffffffffffff16905090565b6101958161026c565b156101d5576040517f08c379a00000000000000000000000000000000000000000000000000000000081526004016101cc90610821565b60405180910390fd5b600180826040516101e691906107ad565b908152602001604051809103902060006101000a81548160ff0219169083151502179055504260028260405161021c91906107ad565b9081526020016040518091039020819055507f1eedac193bfc50544c5cb632f19e7f8ea3717d16874b0ca1ce09b83aac2773fc8133426040516102619392919061087a565b60405180910390a150565b600060018260405161027e91906107ad565b908152602001604051809103902060009054906101000a900460ff169050919050565b6102a9610327565b600073ffffffffffffffffffffffffffffffffffffffff168173ffffffffffffffffffffffffffffffffffffffff160361031b5760006040517f1e4fbdf70000000000000000000000000000000000000000000000000000000081526004016103129190610692565b60405180910390fd5b610324816103ae565b50565b61032f610472565b73ffffffffffffffffffffffffffffffffffffffff1661034d610163565b73ffffffffffffffffffffffffffffffffffffffff16146103ac57610370610472565b6040517f118cdaa70000000000000000000000000000000000000000000000000000000081526004016103a39190610692565b60405180910390fd5b565b60008060009054906101000a900473ffffffffffffffffffffffffffffffffffffffff169050816000806101000a81548173ffffffffffffffffffffffffffffffffffffffff021916908373ffffffffffffffffffffffffffffffffffffffff1602179055508173ffffffffffffffffffffffffffffffffffffffff168173ffffffffffffffffffffffffffffffffffffffff167f8be0079c531659141344cd1fd0a4f28419497f9722a3daafe3b4186f6b6457e060405160405180910390a35050565b600033905090565b6000604051905090565b600080fd5b600080fd5b600080fd5b600080fd5b6000601f19601f8301169050919050565b7f4e487b7100000000000000000000000000000000000000000000000000000000600052604160045260246000fd5b6104e182610498565b810181811067ffffffffffffffff82111715610500576104ff6104a9565b5b80604052505050565b600061051361047a565b905061051f82826104d8565b919050565b600067ffffffffffffffff82111561053f5761053e6104a9565b5b61054882610498565b9050602081019050919050565b82818337600083830152505050565b600061057761057284610524565b610509565b90508281526020810184848401111561059357610592610493565b5b61059e848285610555565b509392505050565b600082601f8301126105bb576105ba61048e565b5b81356105cb848260208601610564565b91505092915050565b6000602082840312156105ea576105e9610484565b5b600082013567ffffffffffffffff81111561060857610607610489565b5b610614848285016105a6565b91505092915050565b6000819050919050565b6106308161061d565b82525050565b600060208201905061064b6000830184610627565b92915050565b600073ffffffffffffffffffffffffffffffffffffffff82169050919050565b600061067c82610651565b9050919050565b61068c81610671565b82525050565b60006020820190506106a76000830184610683565b92915050565b60008115159050919050565b6106c2816106ad565b82525050565b60006020820190506106dd60008301846106b9565b92915050565b6106ec81610671565b81146106f757600080fd5b50565b600081359050610709816106e3565b92915050565b60006020828403121561072557610724610484565b5b6000610733848285016106fa565b91505092915050565b600081519050919050565b600081905092915050565b60005b83811015610770578082015181840152602081019050610755565b60008484015250505050565b60006107878261073c565b6107918185610747565b93506107a1818560208601610752565b80840191505092915050565b60006107b9828461077c565b915081905092915050565b600082825260208201905092915050565b7f50726f6475637420616c72656164792076657269666965640000000000000000600082015250565b600061080b6018836107c4565b9150610816826107d5565b602082019050919050565b6000602082019050818103600083015261083a816107fe565b9050919050565b600061084c8261073c565b61085681856107c4565b9350610866818560208601610752565b61086f81610498565b840191505092915050565b600060608201905081810360008301526108948186610841565b90506108a36020830185610683565b6108b06040830184610627565b94935050505056fea2646970667358221220691c448ebf29e6b8f19e1d3dfcf49b57bb1eb8fcf64cd1d5ec8a76f09e41a66c64736f6c63430008140033",
  "linkReferences": {},
  "deployedLinkReferences": {}
}